{
  "_format": "hh-sol-artifact-1",
  "contractName": "MatchBoXNFTLogic",
  "sourceName": "contracts/MatchBoXNFTLogic.sol",
  "abi": [
    {
      "inputs": [],
      "stateMutability": "nonpayable",
      "type": "constructor"
    },
    {
      "inputs": [
        {
          "internalType": "address",
          "name": "caller",
          "type": "address"
        },
        {
          "internalType": "address",
          "name": "recipient",
          "type": "address"
        },
        {
          "internalType": "uint256",
          "name": "id",
          "type": "uint256"
        }
      ],
      "name": "checkCaller",
      "outputs": [
        {
          "internalType": "bool",
          "name": "",
          "type": "bool"
        }
      ],
      "stateMutability": "view",
      "type": "function"
    }
  ],
  "bytecode": "0x608060405234801561001057600080fd5b50336000806101000a81548173ffffffffffffffffffffffffffffffffffffffff021916908373ffffffffffffffffffffffffffffffffffffffff160217905550610232806100606000396000f3fe608060405234801561001057600080fd5b506004361061002b5760003560e01c80634ca15edc14610030575b600080fd5b61004a60048036038101906100459190610173565b610060565b60405161005791906101e1565b60405180910390f35b600080600073ffffffffffffffffffffffffffffffffffffffff168573ffffffffffffffffffffffffffffffffffffffff16141580156100cd5750600073ffffffffffffffffffffffffffffffffffffffff168473ffffffffffffffffffffffffffffffffffffffff1614155b9050809150509392505050565b600080fd5b600073ffffffffffffffffffffffffffffffffffffffff82169050919050565b600061010a826100df565b9050919050565b61011a816100ff565b811461012557600080fd5b50565b60008135905061013781610111565b92915050565b6000819050919050565b6101508161013d565b811461015b57600080fd5b50565b60008135905061016d81610147565b92915050565b60008060006060848603121561018c5761018b6100da565b5b600061019a86828701610128565b93505060206101ab86828701610128565b92505060406101bc8682870161015e565b9150509250925092565b60008115159050919050565b6101db816101c6565b82525050565b60006020820190506101f660008301846101d2565b9291505056fea264697066735822122001d09d00ab63b39cef140a46aa39967e55012fdfce2666c7d8a179dd953cecf264736f6c63430008090033",
  "linkReferences": {},
  "deployedLinkReferences": {}
}