{
  "_format": "hh-sol-artifact-1",
  "contractName": "MatchBoXNFT",
  "sourceName": "contracts/MatchBoXNFT.sol",
  "abi": [
    {
      "inputs": [
        {
          "internalType": "address",
          "name": "_address",
          "type": "address"
        }
      ],
      "stateMutability": "nonpayable",
      "type": "constructor"
    },
    {
      "anonymous": false,
      "inputs": [
        {
          "indexed": true,
          "internalType": "address",
          "name": "owner",
          "type": "address"
        },
        {
          "indexed": true,
          "internalType": "address",
          "name": "approved",
          "type": "address"
        },
        {
          "indexed": true,
          "internalType": "uint256",
          "name": "tokenId",
          "type": "uint256"
        }
      ],
      "name": "Approval",
      "type": "event"
    },
    {
      "anonymous": false,
      "inputs": [
        {
          "indexed": true,
          "internalType": "address",
          "name": "owner",
          "type": "address"
        },
        {
          "indexed": true,
          "internalType": "address",
          "name": "operator",
          "type": "address"
        },
        {
          "indexed": false,
          "internalType": "bool",
          "name": "approved",
          "type": "bool"
        }
      ],
      "name": "ApprovalForAll",
      "type": "event"
    },
    {
      "anonymous": false,
      "inputs": [
        {
          "indexed": true,
          "internalType": "address",
          "name": "from",
          "type": "address"
        },
        {
          "indexed": true,
          "internalType": "address",
          "name": "to",
          "type": "address"
        },
        {
          "indexed": true,
          "internalType": "uint256",
          "name": "tokenId",
          "type": "uint256"
        }
      ],
      "name": "Transfer",
      "type": "event"
    },
    {
      "inputs": [
        {
          "internalType": "address",
          "name": "to",
          "type": "address"
        },
        {
          "internalType": "uint256",
          "name": "tokenId",
          "type": "uint256"
        }
      ],
      "name": "approve",
      "outputs": [],
      "stateMutability": "nonpayable",
      "type": "function"
    },
    {
      "inputs": [
        {
          "internalType": "address",
          "name": "owner",
          "type": "address"
        }
      ],
      "name": "balanceOf",
      "outputs": [
        {
          "internalType": "uint256",
          "name": "",
          "type": "uint256"
        }
      ],
      "stateMutability": "view",
      "type": "function"
    },
    {
      "inputs": [
        {
          "internalType": "uint256",
          "name": "tokenId",
          "type": "uint256"
        }
      ],
      "name": "getApproved",
      "outputs": [
        {
          "internalType": "address",
          "name": "",
          "type": "address"
        }
      ],
      "stateMutability": "view",
      "type": "function"
    },
    {
      "inputs": [
        {
          "internalType": "address",
          "name": "owner",
          "type": "address"
        },
        {
          "internalType": "address",
          "name": "operator",
          "type": "address"
        }
      ],
      "name": "isApprovedForAll",
      "outputs": [
        {
          "internalType": "bool",
          "name": "",
          "type": "bool"
        }
      ],
      "stateMutability": "view",
      "type": "function"
    },
    {
      "inputs": [
        {
          "internalType": "address",
          "name": "recipient",
          "type": "address"
        },
        {
          "internalType": "string",
          "name": "tokenURI",
          "type": "string"
        },
        {
          "internalType": "uint256",
          "name": "id",
          "type": "uint256"
        }
      ],
      "name": "mintNFT",
      "outputs": [
        {
          "internalType": "uint256",
          "name": "",
          "type": "uint256"
        }
      ],
      "stateMutability": "nonpayable",
      "type": "function"
    },
    {
      "inputs": [],
      "name": "name",
      "outputs": [
        {
          "internalType": "string",
          "name": "",
          "type": "string"
        }
      ],
      "stateMutability": "view",
      "type": "function"
    },
    {
      "inputs": [
        {
          "internalType": "uint256",
          "name": "tokenId",
          "type": "uint256"
        }
      ],
      "name": "ownerOf",
      "outputs": [
        {
          "internalType": "address",
          "name": "",
          "type": "address"
        }
      ],
      "stateMutability": "view",
      "type": "function"
    },
    {
      "inputs": [
        {
          "internalType": "address",
          "name": "from",
          "type": "address"
        },
        {
          "internalType": "address",
          "name": "to",
          "type": "address"
        },
        {
          "internalType": "uint256",
          "name": "tokenId",
          "type": "uint256"
        }
      ],
      "name": "safeTransferFrom",
      "outputs": [],
      "stateMutability": "nonpayable",
      "type": "function"
    },
    {
      "inputs": [
        {
          "internalType": "address",
          "name": "from",
          "type": "address"
        },
        {
          "internalType": "address",
          "name": "to",
          "type": "address"
        },
        {
          "internalType": "uint256",
          "name": "tokenId",
          "type": "uint256"
        },
        {
          "internalType": "bytes",
          "name": "data",
          "type": "bytes"
        }
      ],
      "name": "safeTransferFrom",
      "outputs": [],
      "stateMutability": "nonpayable",
      "type": "function"
    },
    {
      "inputs": [
        {
          "internalType": "address",
          "name": "operator",
          "type": "address"
        },
        {
          "internalType": "bool",
          "name": "approved",
          "type": "bool"
        }
      ],
      "name": "setApprovalForAll",
      "outputs": [],
      "stateMutability": "nonpayable",
      "type": "function"
    },
    {
      "inputs": [
        {
          "internalType": "bytes4",
          "name": "interfaceId",
          "type": "bytes4"
        }
      ],
      "name": "supportsInterface",
      "outputs": [
        {
          "internalType": "bool",
          "name": "",
          "type": "bool"
        }
      ],
      "stateMutability": "view",
      "type": "function"
    },
    {
      "inputs": [],
      "name": "symbol",
      "outputs": [
        {
          "internalType": "string",
          "name": "",
          "type": "string"
        }
      ],
      "stateMutability": "view",
      "type": "function"
    },
    {
      "inputs": [
        {
          "internalType": "uint256",
          "name": "tokenId",
          "type": "uint256"
        }
      ],
      "name": "tokenURI",
      "outputs": [
        {
          "internalType": "string",
          "name": "",
          "type": "string"
        }
      ],
      "stateMutability": "view",
      "type": "function"
    },
    {
      "inputs": [
        {
          "internalType": "address",
          "name": "from",
          "type": "address"
        },
        {
          "internalType": "address",
          "name": "to",
          "type": "address"
        },
        {
          "internalType": "uint256",
          "name": "tokenId",
          "type": "uint256"
        }
      ],
      "name": "transferFrom",
      "outputs": [],
      "stateMutability": "nonpayable",
      "type": "function"
    }
  ],
  "bytecode": "0x60806040523480156200001157600080fd5b5060405162002d2938038062002d2983398181016040528101906200003791906200027a565b6040518060400160405280600b81526020017f4d61746368426f584e46540000000000000000000000000000000000000000008152506040518060400160405280600381526020017f4d424e00000000000000000000000000000000000000000000000000000000008152508160009080519060200190620000bb92919062000160565b508060019080519060200190620000d492919062000160565b50505033600960006101000a81548173ffffffffffffffffffffffffffffffffffffffff021916908373ffffffffffffffffffffffffffffffffffffffff16021790555080600860006101000a81548173ffffffffffffffffffffffffffffffffffffffff021916908373ffffffffffffffffffffffffffffffffffffffff1602179055505062000311565b8280546200016e90620002db565b90600052602060002090601f016020900481019282620001925760008555620001de565b82601f10620001ad57805160ff1916838001178555620001de565b82800160010185558215620001de579182015b82811115620001dd578251825591602001919060010190620001c0565b5b509050620001ed9190620001f1565b5090565b5b808211156200020c576000816000905550600101620001f2565b5090565b600080fd5b600073ffffffffffffffffffffffffffffffffffffffff82169050919050565b6000620002428262000215565b9050919050565b620002548162000235565b81146200026057600080fd5b50565b600081519050620002748162000249565b92915050565b60006020828403121562000293576200029262000210565b5b6000620002a38482850162000263565b91505092915050565b7f4e487b7100000000000000000000000000000000000000000000000000000000600052602260045260246000fd5b60006002820490506001821680620002f457607f821691505b602082108114156200030b576200030a620002ac565b5b50919050565b612a0880620003216000396000f3fe608060405234801561001057600080fd5b50600436106100ea5760003560e01c80636352211e1161008c578063a22cb46511610066578063a22cb4651461026f578063b88d4fde1461028b578063c87b56dd146102a7578063e985e9c5146102d7576100ea565b80636352211e146101f157806370a082311461022157806395d89b4114610251576100ea565b806308598df0116100c857806308598df01461016d578063095ea7b31461019d57806323b872dd146101b957806342842e0e146101d5576100ea565b806301ffc9a7146100ef57806306fdde031461011f578063081812fc1461013d575b600080fd5b6101096004803603810190610104919061194c565b610307565b6040516101169190611994565b60405180910390f35b6101276103e9565b6040516101349190611a48565b60405180910390f35b61015760048036038101906101529190611aa0565b61047b565b6040516101649190611b0e565b60405180910390f35b61018760048036038101906101829190611c8a565b6104c1565b6040516101949190611d08565b60405180910390f35b6101b760048036038101906101b29190611d23565b61050d565b005b6101d360048036038101906101ce9190611d63565b610625565b005b6101ef60048036038101906101ea9190611d63565b610685565b005b61020b60048036038101906102069190611aa0565b6106a5565b6040516102189190611b0e565b60405180910390f35b61023b60048036038101906102369190611db6565b610757565b6040516102489190611d08565b60405180910390f35b61025961080f565b6040516102669190611a48565b60405180910390f35b61028960048036038101906102849190611e0f565b6108a1565b005b6102a560048036038101906102a09190611ef0565b6108b7565b005b6102c160048036038101906102bc9190611aa0565b610919565b6040516102ce9190611a48565b60405180910390f35b6102f160048036038101906102ec9190611f73565b610a2c565b6040516102fe9190611994565b60405180910390f35b60007f80ac58cd000000000000000000000000000000000000000000000000000000007bffffffffffffffffffffffffffffffffffffffffffffffffffffffff1916827bffffffffffffffffffffffffffffffffffffffffffffffffffffffff191614806103d257507f5b5e139f000000000000000000000000000000000000000000000000000000007bffffffffffffffffffffffffffffffffffffffffffffffffffffffff1916827bffffffffffffffffffffffffffffffffffffffffffffffffffffffff1916145b806103e257506103e182610ac0565b5b9050919050565b6060600080546103f890611fe2565b80601f016020809104026020016040519081016040528092919081815260200182805461042490611fe2565b80156104715780601f1061044657610100808354040283529160200191610471565b820191906000526020600020905b81548152906001019060200180831161045457829003601f168201915b5050505050905090565b600061048682610b2a565b6004600083815260200190815260200160002060009054906101000a900473ffffffffffffffffffffffffffffffffffffffff169050919050565b60006104cd8483610b75565b6104d657600080fd5b6104e06007610c35565b60006104ec6007610c4b565b90506104f88582610c59565b6105028185610e33565b809150509392505050565b6000610518826106a5565b90508073ffffffffffffffffffffffffffffffffffffffff168373ffffffffffffffffffffffffffffffffffffffff161415610589576040517f08c379a000000000000000000000000000000000000000000000000000000000815260040161058090612086565b60405180910390fd5b8073ffffffffffffffffffffffffffffffffffffffff166105a8610ea7565b73ffffffffffffffffffffffffffffffffffffffff1614806105d757506105d6816105d1610ea7565b610a2c565b5b610616576040517f08c379a000000000000000000000000000000000000000000000000000000000815260040161060d90612118565b60405180910390fd5b6106208383610eaf565b505050565b610636610630610ea7565b82610f68565b610675576040517f08c379a000000000000000000000000000000000000000000000000000000000815260040161066c906121aa565b60405180910390fd5b610680838383610ffd565b505050565b6106a0838383604051806020016040528060008152506108b7565b505050565b6000806002600084815260200190815260200160002060009054906101000a900473ffffffffffffffffffffffffffffffffffffffff169050600073ffffffffffffffffffffffffffffffffffffffff168173ffffffffffffffffffffffffffffffffffffffff16141561074e576040517f08c379a000000000000000000000000000000000000000000000000000000000815260040161074590612216565b60405180910390fd5b80915050919050565b60008073ffffffffffffffffffffffffffffffffffffffff168273ffffffffffffffffffffffffffffffffffffffff1614156107c8576040517f08c379a00000000000000000000000000000000000000000000000000000000081526004016107bf906122a8565b60405180910390fd5b600360008373ffffffffffffffffffffffffffffffffffffffff1673ffffffffffffffffffffffffffffffffffffffff168152602001908152602001600020549050919050565b60606001805461081e90611fe2565b80601f016020809104026020016040519081016040528092919081815260200182805461084a90611fe2565b80156108975780601f1061086c57610100808354040283529160200191610897565b820191906000526020600020905b81548152906001019060200180831161087a57829003601f168201915b5050505050905090565b6108b36108ac610ea7565b8383611264565b5050565b6108c86108c2610ea7565b83610f68565b610907576040517f08c379a00000000000000000000000000000000000000000000000000000000081526004016108fe906121aa565b60405180910390fd5b610913848484846113d1565b50505050565b606061092482610b2a565b600060066000848152602001908152602001600020805461094490611fe2565b80601f016020809104026020016040519081016040528092919081815260200182805461097090611fe2565b80156109bd5780601f10610992576101008083540402835291602001916109bd565b820191906000526020600020905b8154815290600101906020018083116109a057829003601f168201915b5050505050905060006109ce61142d565b90506000815114156109e4578192505050610a27565b600082511115610a19578082604051602001610a01929190612304565b60405160208183030381529060405292505050610a27565b610a2284611444565b925050505b919050565b6000600560008473ffffffffffffffffffffffffffffffffffffffff1673ffffffffffffffffffffffffffffffffffffffff16815260200190815260200160002060008373ffffffffffffffffffffffffffffffffffffffff1673ffffffffffffffffffffffffffffffffffffffff16815260200190815260200160002060009054906101000a900460ff16905092915050565b60007f01ffc9a7000000000000000000000000000000000000000000000000000000007bffffffffffffffffffffffffffffffffffffffffffffffffffffffff1916827bffffffffffffffffffffffffffffffffffffffffffffffffffffffff1916149050919050565b610b33816114ac565b610b72576040517f08c379a0000000000000000000000000000000000000000000000000000000008152600401610b6990612216565b60405180910390fd5b50565b600080600860009054906101000a900473ffffffffffffffffffffffffffffffffffffffff1690508073ffffffffffffffffffffffffffffffffffffffff16634ca15edc3386866040518463ffffffff1660e01b8152600401610bda93929190612328565b602060405180830381600087803b158015610bf457600080fd5b505af1158015610c08573d6000803e3d6000fd5b505050506040513d601f19601f82011682018060405250810190610c2c9190612374565b91505092915050565b6001816000016000828254019250508190555050565b600081600001549050919050565b600073ffffffffffffffffffffffffffffffffffffffff168273ffffffffffffffffffffffffffffffffffffffff161415610cc9576040517f08c379a0000000000000000000000000000000000000000000000000000000008152600401610cc0906123ed565b60405180910390fd5b610cd2816114ac565b15610d12576040517f08c379a0000000000000000000000000000000000000000000000000000000008152600401610d0990612459565b60405180910390fd5b610d1e60008383611518565b6001600360008473ffffffffffffffffffffffffffffffffffffffff1673ffffffffffffffffffffffffffffffffffffffff1681526020019081526020016000206000828254610d6e91906124a8565b92505081905550816002600083815260200190815260200160002060006101000a81548173ffffffffffffffffffffffffffffffffffffffff021916908373ffffffffffffffffffffffffffffffffffffffff160217905550808273ffffffffffffffffffffffffffffffffffffffff16600073ffffffffffffffffffffffffffffffffffffffff167fddf252ad1be2c89b69c2b068fc378daa952ba7f163c4a11628f55a4df523b3ef60405160405180910390a4610e2f6000838361151d565b5050565b610e3c826114ac565b610e7b576040517f08c379a0000000000000000000000000000000000000000000000000000000008152600401610e7290612570565b60405180910390fd5b80600660008481526020019081526020016000209080519060200190610ea292919061183d565b505050565b600033905090565b816004600083815260200190815260200160002060006101000a81548173ffffffffffffffffffffffffffffffffffffffff021916908373ffffffffffffffffffffffffffffffffffffffff160217905550808273ffffffffffffffffffffffffffffffffffffffff16610f22836106a5565b73ffffffffffffffffffffffffffffffffffffffff167f8c5be1e5ebec7d5bd14f71427d1e84f3dd0314c0f7b2291e5b200ac8c7c3b92560405160405180910390a45050565b600080610f74836106a5565b90508073ffffffffffffffffffffffffffffffffffffffff168473ffffffffffffffffffffffffffffffffffffffff161480610fb65750610fb58185610a2c565b5b80610ff457508373ffffffffffffffffffffffffffffffffffffffff16610fdc8461047b565b73ffffffffffffffffffffffffffffffffffffffff16145b91505092915050565b8273ffffffffffffffffffffffffffffffffffffffff1661101d826106a5565b73ffffffffffffffffffffffffffffffffffffffff1614611073576040517f08c379a000000000000000000000000000000000000000000000000000000000815260040161106a90612602565b60405180910390fd5b600073ffffffffffffffffffffffffffffffffffffffff168273ffffffffffffffffffffffffffffffffffffffff1614156110e3576040517f08c379a00000000000000000000000000000000000000000000000000000000081526004016110da90612694565b60405180910390fd5b6110ee838383611518565b6110f9600082610eaf565b6001600360008573ffffffffffffffffffffffffffffffffffffffff1673ffffffffffffffffffffffffffffffffffffffff168152602001908152602001600020600082825461114991906126b4565b925050819055506001600360008473ffffffffffffffffffffffffffffffffffffffff1673ffffffffffffffffffffffffffffffffffffffff16815260200190815260200160002060008282546111a091906124a8565b92505081905550816002600083815260200190815260200160002060006101000a81548173ffffffffffffffffffffffffffffffffffffffff021916908373ffffffffffffffffffffffffffffffffffffffff160217905550808273ffffffffffffffffffffffffffffffffffffffff168473ffffffffffffffffffffffffffffffffffffffff167fddf252ad1be2c89b69c2b068fc378daa952ba7f163c4a11628f55a4df523b3ef60405160405180910390a461125f83838361151d565b505050565b8173ffffffffffffffffffffffffffffffffffffffff168373ffffffffffffffffffffffffffffffffffffffff1614156112d3576040517f08c379a00000000000000000000000000000000000000000000000000000000081526004016112ca90612734565b60405180910390fd5b80600560008573ffffffffffffffffffffffffffffffffffffffff1673ffffffffffffffffffffffffffffffffffffffff16815260200190815260200160002060008473ffffffffffffffffffffffffffffffffffffffff1673ffffffffffffffffffffffffffffffffffffffff16815260200190815260200160002060006101000a81548160ff0219169083151502179055508173ffffffffffffffffffffffffffffffffffffffff168373ffffffffffffffffffffffffffffffffffffffff167f17307eab39ab6107e8899845ad3d59bd9653f200f220920489ca2b5937696c31836040516113c49190611994565b60405180910390a3505050565b6113dc848484610ffd565b6113e884848484611522565b611427576040517f08c379a000000000000000000000000000000000000000000000000000000000815260040161141e906127c6565b60405180910390fd5b50505050565b606060405180602001604052806000815250905090565b606061144f82610b2a565b600061145961142d565b9050600081511161147957604051806020016040528060008152506114a4565b80611483846116b9565b604051602001611494929190612304565b6040516020818303038152906040525b915050919050565b60008073ffffffffffffffffffffffffffffffffffffffff166002600084815260200190815260200160002060009054906101000a900473ffffffffffffffffffffffffffffffffffffffff1673ffffffffffffffffffffffffffffffffffffffff1614159050919050565b505050565b505050565b60006115438473ffffffffffffffffffffffffffffffffffffffff1661181a565b156116ac578373ffffffffffffffffffffffffffffffffffffffff1663150b7a0261156c610ea7565b8786866040518563ffffffff1660e01b815260040161158e949392919061283b565b602060405180830381600087803b1580156115a857600080fd5b505af19250505080156115d957506040513d601f19601f820116820180604052508101906115d6919061289c565b60015b61165c573d8060008114611609576040519150601f19603f3d011682016040523d82523d6000602084013e61160e565b606091505b50600081511415611654576040517f08c379a000000000000000000000000000000000000000000000000000000000815260040161164b906127c6565b60405180910390fd5b805181602001fd5b63150b7a0260e01b7bffffffffffffffffffffffffffffffffffffffffffffffffffffffff1916817bffffffffffffffffffffffffffffffffffffffffffffffffffffffff1916149150506116b1565b600190505b949350505050565b60606000821415611701576040518060400160405280600181526020017f30000000000000000000000000000000000000000000000000000000000000008152509050611815565b600082905060005b6000821461173357808061171c906128c9565b915050600a8261172c9190612941565b9150611709565b60008167ffffffffffffffff81111561174f5761174e611b5f565b5b6040519080825280601f01601f1916602001820160405280156117815781602001600182028036833780820191505090505b5090505b6000851461180e5760018261179a91906126b4565b9150600a856117a99190612972565b60306117b591906124a8565b60f81b8183815181106117cb576117ca6129a3565b5b60200101907effffffffffffffffffffffffffffffffffffffffffffffffffffffffffffff1916908160001a905350600a856118079190612941565b9450611785565b8093505050505b919050565b6000808273ffffffffffffffffffffffffffffffffffffffff163b119050919050565b82805461184990611fe2565b90600052602060002090601f01602090048101928261186b57600085556118b2565b82601f1061188457805160ff19168380011785556118b2565b828001600101855582156118b2579182015b828111156118b1578251825591602001919060010190611896565b5b5090506118bf91906118c3565b5090565b5b808211156118dc5760008160009055506001016118c4565b5090565b6000604051905090565b600080fd5b600080fd5b60007fffffffff0000000000000000000000000000000000000000000000000000000082169050919050565b611929816118f4565b811461193457600080fd5b50565b60008135905061194681611920565b92915050565b600060208284031215611962576119616118ea565b5b600061197084828501611937565b91505092915050565b60008115159050919050565b61198e81611979565b82525050565b60006020820190506119a96000830184611985565b92915050565b600081519050919050565b600082825260208201905092915050565b60005b838110156119e95780820151818401526020810190506119ce565b838111156119f8576000848401525b50505050565b6000601f19601f8301169050919050565b6000611a1a826119af565b611a2481856119ba565b9350611a348185602086016119cb565b611a3d816119fe565b840191505092915050565b60006020820190508181036000830152611a628184611a0f565b905092915050565b6000819050919050565b611a7d81611a6a565b8114611a8857600080fd5b50565b600081359050611a9a81611a74565b92915050565b600060208284031215611ab657611ab56118ea565b5b6000611ac484828501611a8b565b91505092915050565b600073ffffffffffffffffffffffffffffffffffffffff82169050919050565b6000611af882611acd565b9050919050565b611b0881611aed565b82525050565b6000602082019050611b236000830184611aff565b92915050565b611b3281611aed565b8114611b3d57600080fd5b50565b600081359050611b4f81611b29565b92915050565b600080fd5b600080fd5b7f4e487b7100000000000000000000000000000000000000000000000000000000600052604160045260246000fd5b611b97826119fe565b810181811067ffffffffffffffff82111715611bb657611bb5611b5f565b5b80604052505050565b6000611bc96118e0565b9050611bd58282611b8e565b919050565b600067ffffffffffffffff821115611bf557611bf4611b5f565b5b611bfe826119fe565b9050602081019050919050565b82818337600083830152505050565b6000611c2d611c2884611bda565b611bbf565b905082815260208101848484011115611c4957611c48611b5a565b5b611c54848285611c0b565b509392505050565b600082601f830112611c7157611c70611b55565b5b8135611c81848260208601611c1a565b91505092915050565b600080600060608486031215611ca357611ca26118ea565b5b6000611cb186828701611b40565b935050602084013567ffffffffffffffff811115611cd257611cd16118ef565b5b611cde86828701611c5c565b9250506040611cef86828701611a8b565b9150509250925092565b611d0281611a6a565b82525050565b6000602082019050611d1d6000830184611cf9565b92915050565b60008060408385031215611d3a57611d396118ea565b5b6000611d4885828601611b40565b9250506020611d5985828601611a8b565b9150509250929050565b600080600060608486031215611d7c57611d7b6118ea565b5b6000611d8a86828701611b40565b9350506020611d9b86828701611b40565b9250506040611dac86828701611a8b565b9150509250925092565b600060208284031215611dcc57611dcb6118ea565b5b6000611dda84828501611b40565b91505092915050565b611dec81611979565b8114611df757600080fd5b50565b600081359050611e0981611de3565b92915050565b60008060408385031215611e2657611e256118ea565b5b6000611e3485828601611b40565b9250506020611e4585828601611dfa565b9150509250929050565b600067ffffffffffffffff821115611e6a57611e69611b5f565b5b611e73826119fe565b9050602081019050919050565b6000611e93611e8e84611e4f565b611bbf565b905082815260208101848484011115611eaf57611eae611b5a565b5b611eba848285611c0b565b509392505050565b600082601f830112611ed757611ed6611b55565b5b8135611ee7848260208601611e80565b91505092915050565b60008060008060808587031215611f0a57611f096118ea565b5b6000611f1887828801611b40565b9450506020611f2987828801611b40565b9350506040611f3a87828801611a8b565b925050606085013567ffffffffffffffff811115611f5b57611f5a6118ef565b5b611f6787828801611ec2565b91505092959194509250565b60008060408385031215611f8a57611f896118ea565b5b6000611f9885828601611b40565b9250506020611fa985828601611b40565b9150509250929050565b7f4e487b7100000000000000000000000000000000000000000000000000000000600052602260045260246000fd5b60006002820490506001821680611ffa57607f821691505b6020821081141561200e5761200d611fb3565b5b50919050565b7f4552433732313a20617070726f76616c20746f2063757272656e74206f776e6560008201527f7200000000000000000000000000000000000000000000000000000000000000602082015250565b60006120706021836119ba565b915061207b82612014565b604082019050919050565b6000602082019050818103600083015261209f81612063565b9050919050565b7f4552433732313a20617070726f76652063616c6c6572206973206e6f7420746f60008201527f6b656e206f776e6572206e6f7220617070726f76656420666f7220616c6c0000602082015250565b6000612102603e836119ba565b915061210d826120a6565b604082019050919050565b60006020820190508181036000830152612131816120f5565b9050919050565b7f4552433732313a2063616c6c6572206973206e6f7420746f6b656e206f776e6560008201527f72206e6f7220617070726f766564000000000000000000000000000000000000602082015250565b6000612194602e836119ba565b915061219f82612138565b604082019050919050565b600060208201905081810360008301526121c381612187565b9050919050565b7f4552433732313a20696e76616c696420746f6b656e2049440000000000000000600082015250565b60006122006018836119ba565b915061220b826121ca565b602082019050919050565b6000602082019050818103600083015261222f816121f3565b9050919050565b7f4552433732313a2061646472657373207a65726f206973206e6f74206120766160008201527f6c6964206f776e65720000000000000000000000000000000000000000000000602082015250565b60006122926029836119ba565b915061229d82612236565b604082019050919050565b600060208201905081810360008301526122c181612285565b9050919050565b600081905092915050565b60006122de826119af565b6122e881856122c8565b93506122f88185602086016119cb565b80840191505092915050565b600061231082856122d3565b915061231c82846122d3565b91508190509392505050565b600060608201905061233d6000830186611aff565b61234a6020830185611aff565b6123576040830184611cf9565b949350505050565b60008151905061236e81611de3565b92915050565b60006020828403121561238a576123896118ea565b5b60006123988482850161235f565b91505092915050565b7f4552433732313a206d696e7420746f20746865207a65726f2061646472657373600082015250565b60006123d76020836119ba565b91506123e2826123a1565b602082019050919050565b60006020820190508181036000830152612406816123ca565b9050919050565b7f4552433732313a20746f6b656e20616c7265616479206d696e74656400000000600082015250565b6000612443601c836119ba565b915061244e8261240d565b602082019050919050565b6000602082019050818103600083015261247281612436565b9050919050565b7f4e487b7100000000000000000000000000000000000000000000000000000000600052601160045260246000fd5b60006124b382611a6a565b91506124be83611a6a565b9250827fffffffffffffffffffffffffffffffffffffffffffffffffffffffffffffffff038211156124f3576124f2612479565b5b828201905092915050565b7f45524337323155524953746f726167653a2055524920736574206f66206e6f6e60008201527f6578697374656e7420746f6b656e000000000000000000000000000000000000602082015250565b600061255a602e836119ba565b9150612565826124fe565b604082019050919050565b600060208201905081810360008301526125898161254d565b9050919050565b7f4552433732313a207472616e736665722066726f6d20696e636f72726563742060008201527f6f776e6572000000000000000000000000000000000000000000000000000000602082015250565b60006125ec6025836119ba565b91506125f782612590565b604082019050919050565b6000602082019050818103600083015261261b816125df565b9050919050565b7f4552433732313a207472616e7366657220746f20746865207a65726f2061646460008201527f7265737300000000000000000000000000000000000000000000000000000000602082015250565b600061267e6024836119ba565b915061268982612622565b604082019050919050565b600060208201905081810360008301526126ad81612671565b9050919050565b60006126bf82611a6a565b91506126ca83611a6a565b9250828210156126dd576126dc612479565b5b828203905092915050565b7f4552433732313a20617070726f766520746f2063616c6c657200000000000000600082015250565b600061271e6019836119ba565b9150612729826126e8565b602082019050919050565b6000602082019050818103600083015261274d81612711565b9050919050565b7f4552433732313a207472616e7366657220746f206e6f6e20455243373231526560008201527f63656976657220696d706c656d656e7465720000000000000000000000000000602082015250565b60006127b06032836119ba565b91506127bb82612754565b604082019050919050565b600060208201905081810360008301526127df816127a3565b9050919050565b600081519050919050565b600082825260208201905092915050565b600061280d826127e6565b61281781856127f1565b93506128278185602086016119cb565b612830816119fe565b840191505092915050565b60006080820190506128506000830187611aff565b61285d6020830186611aff565b61286a6040830185611cf9565b818103606083015261287c8184612802565b905095945050505050565b60008151905061289681611920565b92915050565b6000602082840312156128b2576128b16118ea565b5b60006128c084828501612887565b91505092915050565b60006128d482611a6a565b91507fffffffffffffffffffffffffffffffffffffffffffffffffffffffffffffffff82141561290757612906612479565b5b600182019050919050565b7f4e487b7100000000000000000000000000000000000000000000000000000000600052601260045260246000fd5b600061294c82611a6a565b915061295783611a6a565b92508261296757612966612912565b5b828204905092915050565b600061297d82611a6a565b915061298883611a6a565b92508261299857612997612912565b5b828206905092915050565b7f4e487b7100000000000000000000000000000000000000000000000000000000600052603260045260246000fdfea264697066735822122006c52ae911faf5342a0b7d2ec9826cabac3abe3facfc99403c733017f4b49b8064736f6c63430008090033",
  "linkReferences": {},
  "deployedLinkReferences": {}
}